{
  "contractName": "Voting",
  "abi": [
    {
      "inputs": [],
      "stateMutability": "nonpayable",
      "type": "constructor"
    },
    {
      "anonymous": false,
      "inputs": [
        {
          "indexed": true,
          "internalType": "uint256",
          "name": "candidateId",
          "type": "uint256"
        },
        {
          "indexed": false,
          "internalType": "string",
          "name": "name",
          "type": "string"
        }
      ],
      "name": "CandidateAdded",
      "type": "event"
    },
    {
      "anonymous": false,
      "inputs": [],
      "name": "ElectionEnded",
      "type": "event"
    },
    {
      "anonymous": false,
      "inputs": [
        {
          "indexed": true,
          "internalType": "address",
          "name": "voter",
          "type": "address"
        },
        {
          "indexed": true,
          "internalType": "uint256",
          "name": "candidateId",
          "type": "uint256"
        }
      ],
      "name": "Voted",
      "type": "event"
    },
    {
      "inputs": [
        {
          "internalType": "uint256",
          "name": "",
          "type": "uint256"
        }
      ],
      "name": "candidates",
      "outputs": [
        {
          "internalType": "uint256",
          "name": "id",
          "type": "uint256"
        },
        {
          "internalType": "string",
          "name": "name",
          "type": "string"
        },
        {
          "internalType": "uint256",
          "name": "voteCount",
          "type": "uint256"
        }
      ],
      "stateMutability": "view",
      "type": "function"
    },
    {
      "inputs": [],
      "name": "candidatesCount",
      "outputs": [
        {
          "internalType": "uint256",
          "name": "",
          "type": "uint256"
        }
      ],
      "stateMutability": "view",
      "type": "function"
    },
    {
      "inputs": [],
      "name": "electionEnded",
      "outputs": [
        {
          "internalType": "bool",
          "name": "",
          "type": "bool"
        }
      ],
      "stateMutability": "view",
      "type": "function"
    },
    {
      "inputs": [],
      "name": "owner",
      "outputs": [
        {
          "internalType": "address",
          "name": "",
          "type": "address"
        }
      ],
      "stateMutability": "view",
      "type": "function"
    },
    {
      "inputs": [
        {
          "internalType": "address",
          "name": "",
          "type": "address"
        }
      ],
      "name": "voters",
      "outputs": [
        {
          "internalType": "bool",
          "name": "",
          "type": "bool"
        }
      ],
      "stateMutability": "view",
      "type": "function"
    },
    {
      "inputs": [
        {
          "internalType": "string",
          "name": "_name",
          "type": "string"
        }
      ],
      "name": "addCandidate",
      "outputs": [],
      "stateMutability": "nonpayable",
      "type": "function"
    },
    {
      "inputs": [
        {
          "internalType": "uint256",
          "name": "_candidateId",
          "type": "uint256"
        }
      ],
      "name": "vote",
      "outputs": [],
      "stateMutability": "nonpayable",
      "type": "function"
    },
    {
      "inputs": [],
      "name": "endElection",
      "outputs": [],
      "stateMutability": "nonpayable",
      "type": "function"
    },
    {
      "inputs": [
        {
          "internalType": "uint256",
          "name": "_id",
          "type": "uint256"
        }
      ],
      "name": "getCandidate",
      "outputs": [
        {
          "internalType": "uint256",
          "name": "",
          "type": "uint256"
        },
        {
          "internalType": "string",
          "name": "",
          "type": "string"
        },
        {
          "internalType": "uint256",
          "name": "",
          "type": "uint256"
        }
      ],
      "stateMutability": "view",
      "type": "function"
    }
  ],
  "bytecode": "0x608060405234801561001057600080fd5b50336000806101000a81548173ffffffffffffffffffffffffffffffffffffffff021916908373ffffffffffffffffffffffffffffffffffffffff1602179055506000600460006101000a81548160ff0219169083151502179055506111d08061007b6000396000f3fe608060405234801561001057600080fd5b50600436106100935760003560e01c8063462e91ec11610066578063462e91ec1461013657806359f78468146101525780638da5cb5b1461015c578063a3ec138d1461017a578063c94ca9e3146101aa57610093565b80630121b93f146100985780632d35a8a2146100b45780633477ee2e146100d257806335b8e82014610104575b600080fd5b6100b260048036038101906100ad91906108bf565b6101c8565b005b6100bc6103c1565b6040516100c991906108fb565b60405180910390f35b6100ec60048036038101906100e791906108bf565b6103c7565b6040516100fb939291906109a6565b60405180910390f35b61011e600480360381019061011991906108bf565b610479565b60405161012d939291906109a6565b60405180910390f35b610150600480360381019061014b9190610b19565b6105b4565b005b61015a6106f7565b005b61016461081e565b6040516101719190610ba3565b60405180910390f35b610194600480360381019061018f9190610bea565b610842565b6040516101a19190610c32565b60405180910390f35b6101b2610862565b6040516101bf9190610c32565b60405180910390f35b600460009054906101000a900460ff1615610218576040517f08c379a000000000000000000000000000000000000000000000000000000000815260040161020f90610c99565b60405180910390fd5b600260003373ffffffffffffffffffffffffffffffffffffffff1673ffffffffffffffffffffffffffffffffffffffff16815260200190815260200160002060009054906101000a900460ff16156102a5576040517f08c379a000000000000000000000000000000000000000000000000000000000815260040161029c90610d05565b60405180910390fd5b6000811180156102b757506003548111155b6102f6576040517f08c379a00000000000000000000000000000000000000000000000000000000081526004016102ed90610d71565b60405180910390fd5b6001600260003373ffffffffffffffffffffffffffffffffffffffff1673ffffffffffffffffffffffffffffffffffffffff16815260200190815260200160002060006101000a81548160ff02191690831515021790555060016000828152602001908152602001600020600201600081548092919061037590610dc0565b9190505550803373ffffffffffffffffffffffffffffffffffffffff167f4d99b957a2bc29a30ebd96a7be8e68fe50a3c701db28a91436490b7d53870ca460405160405180910390a350565b60035481565b60016020528060005260406000206000915090508060000154908060010180546103f090610e37565b80601f016020809104026020016040519081016040528092919081815260200182805461041c90610e37565b80156104695780601f1061043e57610100808354040283529160200191610469565b820191906000526020600020905b81548152906001019060200180831161044c57829003601f168201915b5050505050908060020154905083565b600060606000808411801561049057506003548411155b6104cf576040517f08c379a00000000000000000000000000000000000000000000000000000000081526004016104c690610d71565b60405180910390fd5b6000600160008681526020019081526020016000206040518060600160405290816000820154815260200160018201805461050990610e37565b80601f016020809104026020016040519081016040528092919081815260200182805461053590610e37565b80156105825780601f1061055757610100808354040283529160200191610582565b820191906000526020600020905b81548152906001019060200180831161056557829003601f168201915b505050505081526020016002820154815250509050806000015181602001518260400151935093509350509193909250565b60008054906101000a900473ffffffffffffffffffffffffffffffffffffffff1673ffffffffffffffffffffffffffffffffffffffff163373ffffffffffffffffffffffffffffffffffffffff1614610642576040517f08c379a000000000000000000000000000000000000000000000000000000000815260040161063990610eda565b60405180910390fd5b6003600081548092919061065590610dc0565b91905055506040518060600160405280600354815260200182815260200160008152506001600060035481526020019081526020016000206000820151816000015560208201518160010190816106ac91906110a6565b50604082015181600201559050506003547fe83b2a43e7e82d975c8a0a6d2f045153c869e111136a34d1889ab7b598e396a3826040516106ec9190611178565b60405180910390a250565b60008054906101000a900473ffffffffffffffffffffffffffffffffffffffff1673ffffffffffffffffffffffffffffffffffffffff163373ffffffffffffffffffffffffffffffffffffffff1614610785576040517f08c379a000000000000000000000000000000000000000000000000000000000815260040161077c90610eda565b60405180910390fd5b600460009054906101000a900460ff16156107d5576040517f08c379a00000000000000000000000000000000000000000000000000000000081526004016107cc90610c99565b60405180910390fd5b6001600460006101000a81548160ff0219169083151502179055507f66ec723071e4bb646f7b35d31bc2dee8510979bd8c180edd0690d4f5e802f1e460405160405180910390a1565b60008054906101000a900473ffffffffffffffffffffffffffffffffffffffff1681565b60026020528060005260406000206000915054906101000a900460ff1681565b600460009054906101000a900460ff1681565b6000604051905090565b600080fd5b600080fd5b6000819050919050565b61089c81610889565b81146108a757600080fd5b50565b6000813590506108b981610893565b92915050565b6000602082840312156108d5576108d461087f565b5b60006108e3848285016108aa565b91505092915050565b6108f581610889565b82525050565b600060208201905061091060008301846108ec565b92915050565b600081519050919050565b600082825260208201905092915050565b60005b83811015610950578082015181840152602081019050610935565b60008484015250505050565b6000601f19601f8301169050919050565b600061097882610916565b6109828185610921565b9350610992818560208601610932565b61099b8161095c565b840191505092915050565b60006060820190506109bb60008301866108ec565b81810360208301526109cd818561096d565b90506109dc60408301846108ec565b949350505050565b600080fd5b600080fd5b7f4e487b7100000000000000000000000000000000000000000000000000000000600052604160045260246000fd5b610a268261095c565b810181811067ffffffffffffffff82111715610a4557610a446109ee565b5b80604052505050565b6000610a58610875565b9050610a648282610a1d565b919050565b600067ffffffffffffffff821115610a8457610a836109ee565b5b610a8d8261095c565b9050602081019050919050565b82818337600083830152505050565b6000610abc610ab784610a69565b610a4e565b905082815260208101848484011115610ad857610ad76109e9565b5b610ae3848285610a9a565b509392505050565b600082601f830112610b0057610aff6109e4565b5b8135610b10848260208601610aa9565b91505092915050565b600060208284031215610b2f57610b2e61087f565b5b600082013567ffffffffffffffff811115610b4d57610b4c610884565b5b610b5984828501610aeb565b91505092915050565b600073ffffffffffffffffffffffffffffffffffffffff82169050919050565b6000610b8d82610b62565b9050919050565b610b9d81610b82565b82525050565b6000602082019050610bb86000830184610b94565b92915050565b610bc781610b82565b8114610bd257600080fd5b50565b600081359050610be481610bbe565b92915050565b600060208284031215610c0057610bff61087f565b5b6000610c0e84828501610bd5565b91505092915050565b60008115159050919050565b610c2c81610c17565b82525050565b6000602082019050610c476000830184610c23565b92915050565b7f456c656374696f6e2068617320656e6465640000000000000000000000000000600082015250565b6000610c83601283610921565b9150610c8e82610c4d565b602082019050919050565b60006020820190508181036000830152610cb281610c76565b9050919050565b7f596f75206861766520616c726561647920766f74656400000000000000000000600082015250565b6000610cef601683610921565b9150610cfa82610cb9565b602082019050919050565b60006020820190508181036000830152610d1e81610ce2565b9050919050565b7f496e76616c69642063616e646964617465204944000000000000000000000000600082015250565b6000610d5b601483610921565b9150610d6682610d25565b602082019050919050565b60006020820190508181036000830152610d8a81610d4e565b9050919050565b7f4e487b7100000000000000000000000000000000000000000000000000000000600052601160045260246000fd5b6000610dcb82610889565b91507fffffffffffffffffffffffffffffffffffffffffffffffffffffffffffffffff8203610dfd57610dfc610d91565b5b600182019050919050565b7f4e487b7100000000000000000000000000000000000000000000000000000000600052602260045260246000fd5b60006002820490506001821680610e4f57607f821691505b602082108103610e6257610e61610e08565b5b50919050565b7f4f6e6c79206f776e65722063616e20706572666f726d2074686973206163746960008201527f6f6e000000000000000000000000000000000000000000000000000000000000602082015250565b6000610ec4602283610921565b9150610ecf82610e68565b604082019050919050565b60006020820190508181036000830152610ef381610eb7565b9050919050565b60008190508160005260206000209050919050565b60006020601f8301049050919050565b600082821b905092915050565b600060088302610f5c7fffffffffffffffffffffffffffffffffffffffffffffffffffffffffffffffff82610f1f565b610f668683610f1f565b95508019841693508086168417925050509392505050565b6000819050919050565b6000610fa3610f9e610f9984610889565b610f7e565b610889565b9050919050565b6000819050919050565b610fbd83610f88565b610fd1610fc982610faa565b848454610f2c565b825550505050565b600090565b610fe6610fd9565b610ff1818484610fb4565b505050565b5b818110156110155761100a600082610fde565b600181019050610ff7565b5050565b601f82111561105a5761102b81610efa565b61103484610f0f565b81016020851015611043578190505b61105761104f85610f0f565b830182610ff6565b50505b505050565b600082821c905092915050565b600061107d6000198460080261105f565b1980831691505092915050565b6000611096838361106c565b9150826002028217905092915050565b6110af82610916565b67ffffffffffffffff8111156110c8576110c76109ee565b5b6110d28254610e37565b6110dd828285611019565b600060209050601f83116001811461111057600084156110fe578287015190505b611108858261108a565b865550611170565b601f19841661111e86610efa565b60005b8281101561114657848901518255600182019150602085019450602081019050611121565b86831015611163578489015161115f601f89168261106c565b8355505b6001600288020188555050505b505050505050565b60006020820190508181036000830152611192818461096d565b90509291505056fea264697066735822122084752caedd6223ce293002bdd4642f734dcefc8991663fd8ceebc3b853246c8d64736f6c63430008130033",
  "immutableReferences": {},
  "source": "// SPDX-License-Identifier: MIT\r\npragma solidity ^0.8.19;\r\n\r\ncontract Voting {\r\n    struct Candidate {\r\n        uint id;\r\n        string name;\r\n        uint voteCount;\r\n    }\r\n\r\n    address public owner;\r\n    mapping(uint => Candidate) public candidates;\r\n    mapping(address => bool) public voters;\r\n    uint public candidatesCount;\r\n    bool public electionEnded;\r\n\r\n    event CandidateAdded(uint indexed candidateId, string name);\r\n    event Voted(address indexed voter, uint indexed candidateId);\r\n    event ElectionEnded();\r\n\r\n    constructor() {\r\n        owner = msg.sender;\r\n        electionEnded = false;\r\n    }\r\n\r\n    modifier onlyOwner() {\r\n        require(msg.sender == owner, \"Only owner can perform this action\");\r\n        _;\r\n    }\r\n\r\n    modifier electionActive() {\r\n        require(!electionEnded, \"Election has ended\");\r\n        _;\r\n    }\r\n\r\n    function addCandidate(string memory _name) public onlyOwner {\r\n        candidatesCount++;\r\n        candidates[candidatesCount] = Candidate(candidatesCount, _name, 0);\r\n        emit CandidateAdded(candidatesCount, _name);\r\n    }\r\n\r\n    function vote(uint _candidateId) public electionActive {\r\n        require(!voters[msg.sender], \"You have already voted\");\r\n        require(_candidateId > 0 && _candidateId <= candidatesCount, \"Invalid candidate ID\");\r\n\r\n        voters[msg.sender] = true;\r\n        candidates[_candidateId].voteCount++;\r\n\r\n        emit Voted(msg.sender, _candidateId);\r\n    }\r\n\r\n    function endElection() public onlyOwner electionActive {\r\n        electionEnded = true;\r\n        emit ElectionEnded();\r\n    }\r\n\r\n    function getCandidate(uint _id) public view returns (uint, string memory, uint) {\r\n        require(_id > 0 && _id <= candidatesCount, \"Invalid candidate ID\");\r\n        Candidate memory c = candidates[_id];\r\n        return (c.id, c.name, c.voteCount);\r\n    }\r\n}\r\n",
  "sourcePath": "C:\\Users\\KIIT\\Desktop\\personal projects\\blockchain_voting\\contracts\\Voting.sol",
  "compiler": {
    "name": "solc",
    "version": "0.8.19+commit.7dd6d404.Emscripten.clang"
  },
  "schemaVersion": "3.4.16",
  "updatedAt": "2025-02-06T16:13:25.234Z",
  "devdoc": {
    "kind": "dev",
    "methods": {},
    "version": 1
  },
  "userdoc": {
    "kind": "user",
    "methods": {},
    "version": 1
  }
}